:020000040800F2
:100000006004002045010008CD020008C502000878
:10001000C90200088D010008670A000800000000FE
:10002000000000000000000000000000D5040008EF
:10003000AD010008000000007D030008E90500088C
:100040005F0100085F0100085F0100085F01000810
:100050005F0100085F0100085F0100085F01000800
:100060005F0100085F0100085F0100085F010008F0
:100070005F0100085F0100085F0100085F010008E0
:100080005F0100085F0100085F0100085F010008D0
:100090005F0100085F0100085F0100085F010008C0
:1000A0005F0100085F0100085F0100085F010008B0
:1000B0005F0100085F0100085F0100085F010008A0
:1000C0005F0100085F0100085F0100085F01000890
:1000D0005F0100084D060008BD0600085F0100082A
:1000E0005F0100085F0100085F0100085F01000870
:1000F0005F0100085F0100085F0100085F01000860
:100100005F0100085F0100085F0100085F0100084F
:100110005F0100085F0100085F0100085F0100083F
:100120005F0100085F0100085F0100085F0100082F
:10013000DFF80CD000F018F800480047710B0008F9
:10014000600400200648804706480047FEE7FEE7B7
:10015000FEE7FEE7FEE7FEE7FEE7FEE7FEE7FEE777
:10016000ED05000831010008064C074D06E0E06887
:1001700040F0010394E8070098471034AC42F6D3EE
:10018000FFF7DAFF2C0E00084C0E000800BFFEE758
:100190000548008840F008000349088008460088A8
:1001A00020F00400088070470C38014070472DE9AA
:1001B000F0410246002500260020002300240027ED
:1001C00091F803C00CF00F0591F803C00CF0100C6F
:1001D000BCF1000F03D091F802C04CEA050591F87C
:1001E00000C0BCF1000F31D0146800202BE04FF0AC
:1001F000010C0CFA00F3B1F800C00CEA03069E42B1
:1002000020D183004FF00F0C0CFA03F7BC4305FA22
:1002100003FC4CEA040491F803C0BCF1280F06D19A
:100220004FF0010C0CFA00FCC2F814C00AE091F87F
:1002300003C0BCF1480F05D14FF0010C0CFA00FCD3
:10024000C2F810C0401C0828D1D31460B1F800C017
:10025000BCF1FF0F34DD546800202EE000F1080CE3
:100260004FF0010808FA0CF3B1F800C00CEA0306DD
:100270009E4221D183004FF00F0C0CFA03F7BC43D0
:1002800005FA03FC4CEA040491F803C0BCF1280F02
:1002900005D100F1080C08FA0CF8C2F8148091F8A6
:1002A00003C0BCF1480F07D100F1080C4FF0010862
:1002B00008FA0CF8C2F81080401C0828CED354600D
:1002C000BDE8F08100BFFEE700BFFEE7704710B554
:1002D0004FF4A06000F03AF810BD000070B50021A6
:1002E00000230F22C47804B3154C246804F4E0649E
:1002F000C4F5E064210AC1F10403CA40447804FA59
:1003000003F184781440214309010E4C0678A1556D
:10031000047804F01F050124AC4005786D11AD0090
:1003200005F1E025C5F8004109E0047804F01F0557
:100330000124AC40044D0678761145F8264070BD86
:100340000CED00E000E400E080E100E00249014340
:10035000024A1160704700000000FA050CED00E051
:100360000548008840F00C000349088008460088D2
:1003700020F00800088070470C38014070470000EA
:1003800029B1064AD2690243044BDA6104E0034A08
:10039000D2698243014BDA617047000000100240CD
:1003A00029B1064A12690243044B1A6104E0034A68
:1003B00012698243014B1A6170470000001002402D
:1003C00029B1064A92690243044B9A6104E0034A48
:1003D00092698243014B9A6170470000001002400D
:1003E00029B1064AD2680243044BDA6004E0034AAA
:1003F000D2688243014BDA6070470000001002406F
:1004000030B500210022002400232D4D6D6805F039
:100410000C0121B1042905D0082923D105E0294D7B
:10042000056022E0274D05601FE0254D6D6805F44D
:100430007012234D6D6805F48034022505EB92425D
:100440001CB9214D554305600BE01D4D6D6805F449
:1004500000351DB11C4D5543056002E0194D554353
:10046000056002E0174D056000BF00BF144D6D68C8
:1004700005F0F0010909154D6B5C0568DD4045602C
:100480000F4D6D6805F4E061090A104D6B5C45681D
:10049000DD4085600A4D6D6805F46051C90A0B4D59
:1004A0006B5C4568DD40C560054D6D6805F44041F5
:1004B000890B074D6B5CC568B5FBF3F5056130BD75
:1004C0000010024000127A0000093D0014000020D4
:1004D00024000020704710B500F002F810BD0000A5
:1004E0000CB50020019000903348006840F4803043
:1004F0003149086000BF3048006800F400300090C7
:100500000198401C0190009818B90198B0F5A06FAF
:10051000F1D12948006800F4003010B101200090AA
:1005200001E0002000900098012843D12348006892
:1005300040F01000214908600846006820F00300E0
:1005400008600846006840F0020008601A484068E9
:10055000194948600846406848600846406840F4C9
:10056000806048600846406820F47C104860084677
:10057000406840F4E81048600846006840F0807029
:10058000086000BF0C48006800F000700028F9D037
:100590000948406820F00300074948600846406861
:1005A00040F00200486000BF0348406800F00C00C3
:1005B0000828F9D10CBD00000010024000200240C4
:1005C000042808D14FF0E021096941F004014FF0FF
:1005D000E022116107E04FF0E021096921F00401F8
:1005E0004FF0E022116170477047000010B51348CA
:1005F000006840F001001149086008464068104951
:1006000008400E494860084600680E4908400B49FA
:1006100008600846006820F48020086008464068AA
:1006200020F4FE0048604FF41F008860FFF753FF7E
:100630004FF000600449086010BD00000010024047
:100640000000FFF8FFFFF6FE08ED00E010B540F2F5
:100650002661164800F043F930B31548007888B198
:1006600013480078401E1249087012480078401C58
:100670001049087010480A461278815C0B4800F057
:10068000EEF911E0FFF76CFE6021084800F0B6F8C3
:10069000002240F22661054800F04BF9012240F2A9
:1006A0002551024800F045F910BD00000038014016
:1006B0002C0000202F0000202D00002010B5002469
:1006C00040F22551494800F00AF9002815D0474862
:1006D00000F0C0F904464649464A12788C54454811
:1006E000007858B9084643490978405CAA2805D1E2
:1006F00040480078401C3F49087075E03D4800784C
:1007000001280BD13A483B490978405CAA2805D119
:1007100038480078401C3749087065E03548007853
:1007200002280BD1324833490978405C202805D192
:1007300030480078401C2F49087055E02D4800785B
:1007400003280BD12A482B490978405C022805D19F
:1007500028480078401C2749087045E02548007863
:10076000042805D123480078401C224908703BE04A
:100770002048007805280BD11D481E490978405CA7
:10078000832805D11B480078401C1A4908702BE0CB
:100790001848007806280BD1154816490978405C9E
:1007A000182805D113480078401C124908701BE036
:1007B00010480078072809DB0E480078232805DA5E
:1007C0000C480078401C0B4908700DE0094800787F
:1007D000232806D100200749087001200649087027
:1007E00002E000200349087010BD000000440040F2
:1007F0003C000020360000203000002001F4007290
:10080000B2F5007F00D100BFCA430280704721B11A
:10081000828942F40052828104E082894DF6FF739E
:100820001A4082817047000010B504462048844277
:1008300009D101218803FFF7D3FD00214FF4804047
:10084000FFF7CEFD32E01B48844209D10121480464
:10085000FFF7A6FD00214FF40030FFF7A1FD25E0D2
:100860001548844209D101218804FFF799FD002130
:100870004FF48020FFF794FD18E01048844209D11E
:100880000121C804FFF78CFD00214FF40020FFF781
:1008900087FD0BE00A48844208D101210805FFF7D3
:1008A0007FFD00214FF48010FFF77AFD10BD00009E
:1008B000003801400044004000480040004C004027
:1008C0000050004002460020B1F5007F00D100BF7B
:1008D00013880B400BB1012000E00020704770B579
:1008E0000246002400230025002040F66A16B1428B
:1008F00000D100BFC1F3421501F01F03012606FA23
:1009000003F3012D02D19689334006E0022D02D176
:10091000168A334001E0968A33400C12012606FA0B
:1009200004F41688344013B10CB1012000E000201B
:1009300070BDF0B50346002400260025002040F6D7
:100940006A17B94200D100BF1846C1F3421401F042
:100950001F06012707FA06F5012C01D10C3004E02F
:10096000022C01D1103000E014301AB107682F4377
:10097000076002E00768AF430760F0BD2DE9F0476C
:1009800086B005460E460024A24600BFA1460027B9
:10099000B08900B100BF2F462C8A4CF6FF7004408E
:1009A000F08804432C82AC894EF6F3100440B088E2
:1009B00031890843718908430443AC81AC8A4FF6FE
:1009C000FF400440B0890443AC8201A8FFF718FD42
:1009D0001F48874202D1DDF810A001E0DDF80CA02D
:1009E000A88900F4004040B10AEBCA0000EB0A10ED
:1009F00031684900B0FBF1F807E00AEBCA0000EBF0
:100A00000A1031688900B0FBF1F86420B8FBF0F0FF
:100A100004012009642101FB1089A88900F4004029
:100A200040B1322000EBC900B0FBF1F000F007004C
:100A3000044308E0322000EB09106421B0FBF1F020
:100A400000F00F0004432C8106B0BDE8F0870000E1
:100A50000038014001468888C0F308007047C1F3A0
:100A600008028280704700BFFEE70000014A024989
:100A700000F013B84D0B00083800002002E008C851
:100A8000121F08C1002AFAD170477047002001E008
:100A900001C1121F002AFBD170472DE9F041164613
:100AA0000F460446002503E03946B047641C6D1C20
:100AB00020780028F8D12846BDE8F08110B56FF005
:100AC0000400FFF77DFD0A4800680A49B0FBF1F019
:100AD000094908700846007800EB4001C1EBC010DE
:100AE0004FF6FF7101EAC0000449088010BD000004
:100AF0000000002000127A00280000202A000020B8
:100B00000146114A12884A434FF0E0235A610022FD
:100B10009A611A46126942F001021A6100BF4FF051
:100B2000E022106900F001021AB100F48032002ABC
:100B3000F5D04FF0E022126922F001024FF0E023DD
:100B40001A6100229A6170472A00002070B504469D
:100B50000D46E1B20548FFF782FF00BF8021034840
:100B6000FFF7B0FE0028F9D0204670BD00380140E4
:100B7000FFF73CFDFFF7A2FFFFF7A9FB4FF4614130
:100B80004FF4165000F0B4F84FF4FA70FFF7B8FFC6
:100B900004E000F005F80120FFF7B2FFF9E70000DC
:100BA00010B500243A480078002870D00020384959
:100BB000087000BF09E03749E01C085C3649098825
:100BC000084435490880601CC4B2202CF3DB32484D
:100BD0000078C043C0B2304908802E4890F8230006
:100BE0000988884253D100202B4908802B4908707E
:100BF0002B4908702B49087026480079274908704E
:100C0000244890F8200026490870224890F82200D5
:100C10002449087024A0FFF729FF204800781D28E8
:100C200035D01E480078362831D01C480078372847
:100C30002DD01A480078382829D018480078502834
:100C400025D016480078512821D014480078522821
:100C50001DD0124800786B2819D010480078C82899
:100C600015D00F480078114908700E480078487078
:100C700001200F49087000200E49087000F01EF88E
:100C80000A480C4A1278815C0B48FFF7E8FE10BD59
:100C9000300000203C000020340000203300002001
:100CA0003100002032000020330000002D00002021
:100CB0002C0000202F0000200038014010B5FFF765
:100CC00067FA60210948FFF799FD002240F225519B
:100CD0000648FFF72EFE012240F226610348FFF787
:100CE00028FE0120FFF70CFF10BD00000038014076
:100CF00030B587B005460C46012144F20400FFF7E9
:100D00005FFB01214804FFF73BFB4548FFF78CFDE3
:100D10004448FFF789FD4FF40070ADF81800032038
:100D20008DF81A0018208DF81B0006A93E48FFF721
:100D30003EFA4FF48060ADF8180004208DF81B00D7
:100D400006A93948FFF733FA25208DF8040003205F
:100D50008DF805008DF8060001208DF8070001A828
:100D6000FFF7BCFA02950020ADF80C00ADF80E00BC
:100D7000ADF81000ADF814000C20ADF8120002A977
:100D80002748FFF7FBFD012240F225512448FFF7D9
:100D9000D0FD01212248FFF73AFD0420ADF81800EC
:100DA00003208DF81A0018208DF81B0006A91E4894
:100DB000FFF7FDF90820ADF8180004208DF81B009E
:100DC00006A91948FFF7F3F926208DF8040003203F
:100DD0008DF805008DF8060001208DF8070001A8A8
:100DE000FFF77CFA02940020ADF80C00ADF80E007D
:100DF000ADF81000ADF814000420ADF8120002A9FF
:100E00000848FFF7BBFD012240F225510548FFF7D6
:100E100090FD01210348FFF7FAFC07B030BD000048
:100E20000038014000440040000801404C0E00081A
:100E3000000000203C0000007C0A0008880E00082A
:100E40003C000020240400008C0A000800A24A0490
:100E5000000000000000000001020304060708096A
:100E60000000000001020304010203040607080950
:100E7000020406080000000000000000000000005E
:080E800000000000000000006A
:0400000508000131BD
:00000001FF
